{
	"data": {
		"bytecode": {
			"linkReferences": {},
			"object": "608060405260016000806101000a81548160ff02191690831515021790555060056001556040518060400160405280600481526020017f46697665000000000000000000000000000000000000000000000000000000008152506002908051906020019061006e92919061011e565b507ffffffffffffffffffffffffffffffffffffffffffffffffffffffffffffffffb60035573bfc63927fb4070f86e95f2d41975ce705977ddb0600460006101000a81548173ffffffffffffffffffffffffffffffffffffffff021916908373ffffffffffffffffffffffffffffffffffffffff1602179055507f636174000000000000000000000000000000000000000000000000000000000060055534801561011857600080fd5b50610222565b82805461012a906101c1565b90600052602060002090601f01602090048101928261014c5760008555610193565b82601f1061016557805160ff1916838001178555610193565b82800160010185558215610193579182015b82811115610192578251825591602001919060010190610177565b5b5090506101a091906101a4565b5090565b5b808211156101bd5760008160009055506001016101a5565b5090565b600060028204905060018216806101d957607f821691505b602082108114156101ed576101ec6101f3565b5b50919050565b7f4e487b7100000000000000000000000000000000000000000000000000000000600052602260045260246000fd5b610832806102316000396000f3fe608060405234801561001057600080fd5b50600436106100625760003560e01c80632e64cec114610067578063471f7cdf146100855780636057361d146100a35780636f760f41146100bf578063a4e1ca5a146100db578063b2ac62ef1461010c575b600080fd5b61006f61013c565b60405161007c9190610566565b60405180910390f35b61008d610146565b60405161009a9190610566565b60405180910390f35b6100bd60048036038101906100b891906104a9565b61014c565b005b6100d960048036038101906100d4919061044d565b610162565b005b6100f560048036038101906100f091906104a9565b6101f2565b604051610103929190610581565b60405180910390f35b61012660048036038101906101219190610404565b6102ae565b6040516101339190610566565b60405180910390f35b6000600154905090565b60015481565b600581610159919061062e565b60018190555050565b600660405180604001604052808381526020018481525090806001815401808255809150506001900390600052602060002090600202016000909190919091506000820151816000015560208201518160010190805190602001906101c89291906102dc565b505050806007836040516101dc919061054f565b9081526020016040518091039020819055505050565b6006818154811061020257600080fd5b906000526020600020906002020160009150905080600001549080600101805461022b906106d0565b80601f0160208091040260200160405190810160405280929190818152602001828054610257906106d0565b80156102a45780601f10610279576101008083540402835291602001916102a4565b820191906000526020600020905b81548152906001019060200180831161028757829003601f168201915b5050505050905082565b6007818051602081018201805184825260208301602085012081835280955050505050506000915090505481565b8280546102e8906106d0565b90600052602060002090601f01602090048101928261030a5760008555610351565b82601f1061032357805160ff1916838001178555610351565b82800160010185558215610351579182015b82811115610350578251825591602001919060010190610335565b5b50905061035e9190610362565b5090565b5b8082111561037b576000816000905550600101610363565b5090565b600061039261038d846105d6565b6105b1565b9050828152602081018484840111156103ae576103ad6107c5565b5b6103b984828561068e565b509392505050565b600082601f8301126103d6576103d56107c0565b5b81356103e684826020860161037f565b91505092915050565b6000813590506103fe816107e5565b92915050565b60006020828403121561041a576104196107cf565b5b600082013567ffffffffffffffff811115610438576104376107ca565b5b610444848285016103c1565b91505092915050565b60008060408385031215610464576104636107cf565b5b600083013567ffffffffffffffff811115610482576104816107ca565b5b61048e858286016103c1565b925050602061049f858286016103ef565b9150509250929050565b6000602082840312156104bf576104be6107cf565b5b60006104cd848285016103ef565b91505092915050565b60006104e182610607565b6104eb8185610612565b93506104fb81856020860161069d565b610504816107d4565b840191505092915050565b600061051a82610607565b6105248185610623565b935061053481856020860161069d565b80840191505092915050565b61054981610684565b82525050565b600061055b828461050f565b915081905092915050565b600060208201905061057b6000830184610540565b92915050565b60006040820190506105966000830185610540565b81810360208301526105a881846104d6565b90509392505050565b60006105bb6105cc565b90506105c78282610702565b919050565b6000604051905090565b600067ffffffffffffffff8211156105f1576105f0610791565b5b6105fa826107d4565b9050602081019050919050565b600081519050919050565b600082825260208201905092915050565b600081905092915050565b600061063982610684565b915061064483610684565b9250827fffffffffffffffffffffffffffffffffffffffffffffffffffffffffffffffff0382111561067957610678610733565b5b828201905092915050565b6000819050919050565b82818337600083830152505050565b60005b838110156106bb5780820151818401526020810190506106a0565b838111156106ca576000848401525b50505050565b600060028204905060018216806106e857607f821691505b602082108114156106fc576106fb610762565b5b50919050565b61070b826107d4565b810181811067ffffffffffffffff8211171561072a57610729610791565b5b80604052505050565b7f4e487b7100000000000000000000000000000000000000000000000000000000600052601160045260246000fd5b7f4e487b7100000000000000000000000000000000000000000000000000000000600052602260045260246000fd5b7f4e487b7100000000000000000000000000000000000000000000000000000000600052604160045260246000fd5b600080fd5b600080fd5b600080fd5b600080fd5b6000601f19601f8301169050919050565b6107ee81610684565b81146107f957600080fd5b5056fea26469706673582212203869252f6023877e430b17050b6accc1c9218d0ef925638f6d24993770e1c6bc64736f6c63430008070033",
			"opcodes": "PUSH1 0x80 PUSH1 0x40 MSTORE PUSH1 0x1 PUSH1 0x0 DUP1 PUSH2 0x100 EXP DUP2 SLOAD DUP2 PUSH1 0xFF MUL NOT AND SWAP1 DUP4 ISZERO ISZERO MUL OR SWAP1 SSTORE POP PUSH1 0x5 PUSH1 0x1 SSTORE PUSH1 0x40 MLOAD DUP1 PUSH1 0x40 ADD PUSH1 0x40 MSTORE DUP1 PUSH1 0x4 DUP2 MSTORE PUSH1 0x20 ADD PUSH32 0x4669766500000000000000000000000000000000000000000000000000000000 DUP2 MSTORE POP PUSH1 0x2 SWAP1 DUP1 MLOAD SWAP1 PUSH1 0x20 ADD SWAP1 PUSH2 0x6E SWAP3 SWAP2 SWAP1 PUSH2 0x11E JUMP JUMPDEST POP PUSH32 0xFFFFFFFFFFFFFFFFFFFFFFFFFFFFFFFFFFFFFFFFFFFFFFFFFFFFFFFFFFFFFFFB PUSH1 0x3 SSTORE PUSH20 0xBFC63927FB4070F86E95F2D41975CE705977DDB0 PUSH1 0x4 PUSH1 0x0 PUSH2 0x100 EXP DUP2 SLOAD DUP2 PUSH20 0xFFFFFFFFFFFFFFFFFFFFFFFFFFFFFFFFFFFFFFFF MUL NOT AND SWAP1 DUP4 PUSH20 0xFFFFFFFFFFFFFFFFFFFFFFFFFFFFFFFFFFFFFFFF AND MUL OR SWAP1 SSTORE POP PUSH32 0x6361740000000000000000000000000000000000000000000000000000000000 PUSH1 0x5 SSTORE CALLVALUE DUP1 ISZERO PUSH2 0x118 JUMPI PUSH1 0x0 DUP1 REVERT JUMPDEST POP PUSH2 0x222 JUMP JUMPDEST DUP3 DUP1 SLOAD PUSH2 0x12A SWAP1 PUSH2 0x1C1 JUMP JUMPDEST SWAP1 PUSH1 0x0 MSTORE PUSH1 0x20 PUSH1 0x0 KECCAK256 SWAP1 PUSH1 0x1F ADD PUSH1 0x20 SWAP1 DIV DUP2 ADD SWAP3 DUP3 PUSH2 0x14C JUMPI PUSH1 0x0 DUP6 SSTORE PUSH2 0x193 JUMP JUMPDEST DUP3 PUSH1 0x1F LT PUSH2 0x165 JUMPI DUP1 MLOAD PUSH1 0xFF NOT AND DUP4 DUP1 ADD OR DUP6 SSTORE PUSH2 0x193 JUMP JUMPDEST DUP3 DUP1 ADD PUSH1 0x1 ADD DUP6 SSTORE DUP3 ISZERO PUSH2 0x193 JUMPI SWAP2 DUP3 ADD JUMPDEST DUP3 DUP2 GT ISZERO PUSH2 0x192 JUMPI DUP3 MLOAD DUP3 SSTORE SWAP2 PUSH1 0x20 ADD SWAP2 SWAP1 PUSH1 0x1 ADD SWAP1 PUSH2 0x177 JUMP JUMPDEST JUMPDEST POP SWAP1 POP PUSH2 0x1A0 SWAP2 SWAP1 PUSH2 0x1A4 JUMP JUMPDEST POP SWAP1 JUMP JUMPDEST JUMPDEST DUP1 DUP3 GT ISZERO PUSH2 0x1BD JUMPI PUSH1 0x0 DUP2 PUSH1 0x0 SWAP1 SSTORE POP PUSH1 0x1 ADD PUSH2 0x1A5 JUMP JUMPDEST POP SWAP1 JUMP JUMPDEST PUSH1 0x0 PUSH1 0x2 DUP3 DIV SWAP1 POP PUSH1 0x1 DUP3 AND DUP1 PUSH2 0x1D9 JUMPI PUSH1 0x7F DUP3 AND SWAP2 POP JUMPDEST PUSH1 0x20 DUP3 LT DUP2 EQ ISZERO PUSH2 0x1ED JUMPI PUSH2 0x1EC PUSH2 0x1F3 JUMP JUMPDEST JUMPDEST POP SWAP2 SWAP1 POP JUMP JUMPDEST PUSH32 0x4E487B7100000000000000000000000000000000000000000000000000000000 PUSH1 0x0 MSTORE PUSH1 0x22 PUSH1 0x4 MSTORE PUSH1 0x24 PUSH1 0x0 REVERT JUMPDEST PUSH2 0x832 DUP1 PUSH2 0x231 PUSH1 0x0 CODECOPY PUSH1 0x0 RETURN INVALID PUSH1 0x80 PUSH1 0x40 MSTORE CALLVALUE DUP1 ISZERO PUSH2 0x10 JUMPI PUSH1 0x0 DUP1 REVERT JUMPDEST POP PUSH1 0x4 CALLDATASIZE LT PUSH2 0x62 JUMPI PUSH1 0x0 CALLDATALOAD PUSH1 0xE0 SHR DUP1 PUSH4 0x2E64CEC1 EQ PUSH2 0x67 JUMPI DUP1 PUSH4 0x471F7CDF EQ PUSH2 0x85 JUMPI DUP1 PUSH4 0x6057361D EQ PUSH2 0xA3 JUMPI DUP1 PUSH4 0x6F760F41 EQ PUSH2 0xBF JUMPI DUP1 PUSH4 0xA4E1CA5A EQ PUSH2 0xDB JUMPI DUP1 PUSH4 0xB2AC62EF EQ PUSH2 0x10C JUMPI JUMPDEST PUSH1 0x0 DUP1 REVERT JUMPDEST PUSH2 0x6F PUSH2 0x13C JUMP JUMPDEST PUSH1 0x40 MLOAD PUSH2 0x7C SWAP2 SWAP1 PUSH2 0x566 JUMP JUMPDEST PUSH1 0x40 MLOAD DUP1 SWAP2 SUB SWAP1 RETURN JUMPDEST PUSH2 0x8D PUSH2 0x146 JUMP JUMPDEST PUSH1 0x40 MLOAD PUSH2 0x9A SWAP2 SWAP1 PUSH2 0x566 JUMP JUMPDEST PUSH1 0x40 MLOAD DUP1 SWAP2 SUB SWAP1 RETURN JUMPDEST PUSH2 0xBD PUSH1 0x4 DUP1 CALLDATASIZE SUB DUP2 ADD SWAP1 PUSH2 0xB8 SWAP2 SWAP1 PUSH2 0x4A9 JUMP JUMPDEST PUSH2 0x14C JUMP JUMPDEST STOP JUMPDEST PUSH2 0xD9 PUSH1 0x4 DUP1 CALLDATASIZE SUB DUP2 ADD SWAP1 PUSH2 0xD4 SWAP2 SWAP1 PUSH2 0x44D JUMP JUMPDEST PUSH2 0x162 JUMP JUMPDEST STOP JUMPDEST PUSH2 0xF5 PUSH1 0x4 DUP1 CALLDATASIZE SUB DUP2 ADD SWAP1 PUSH2 0xF0 SWAP2 SWAP1 PUSH2 0x4A9 JUMP JUMPDEST PUSH2 0x1F2 JUMP JUMPDEST PUSH1 0x40 MLOAD PUSH2 0x103 SWAP3 SWAP2 SWAP1 PUSH2 0x581 JUMP JUMPDEST PUSH1 0x40 MLOAD DUP1 SWAP2 SUB SWAP1 RETURN JUMPDEST PUSH2 0x126 PUSH1 0x4 DUP1 CALLDATASIZE SUB DUP2 ADD SWAP1 PUSH2 0x121 SWAP2 SWAP1 PUSH2 0x404 JUMP JUMPDEST PUSH2 0x2AE JUMP JUMPDEST PUSH1 0x40 MLOAD PUSH2 0x133 SWAP2 SWAP1 PUSH2 0x566 JUMP JUMPDEST PUSH1 0x40 MLOAD DUP1 SWAP2 SUB SWAP1 RETURN JUMPDEST PUSH1 0x0 PUSH1 0x1 SLOAD SWAP1 POP SWAP1 JUMP JUMPDEST PUSH1 0x1 SLOAD DUP2 JUMP JUMPDEST PUSH1 0x5 DUP2 PUSH2 0x159 SWAP2 SWAP1 PUSH2 0x62E JUMP JUMPDEST PUSH1 0x1 DUP2 SWAP1 SSTORE POP POP JUMP JUMPDEST PUSH1 0x6 PUSH1 0x40 MLOAD DUP1 PUSH1 0x40 ADD PUSH1 0x40 MSTORE DUP1 DUP4 DUP2 MSTORE PUSH1 0x20 ADD DUP5 DUP2 MSTORE POP SWAP1 DUP1 PUSH1 0x1 DUP2 SLOAD ADD DUP1 DUP3 SSTORE DUP1 SWAP2 POP POP PUSH1 0x1 SWAP1 SUB SWAP1 PUSH1 0x0 MSTORE PUSH1 0x20 PUSH1 0x0 KECCAK256 SWAP1 PUSH1 0x2 MUL ADD PUSH1 0x0 SWAP1 SWAP2 SWAP1 SWAP2 SWAP1 SWAP2 POP PUSH1 0x0 DUP3 ADD MLOAD DUP2 PUSH1 0x0 ADD SSTORE PUSH1 0x20 DUP3 ADD MLOAD DUP2 PUSH1 0x1 ADD SWAP1 DUP1 MLOAD SWAP1 PUSH1 0x20 ADD SWAP1 PUSH2 0x1C8 SWAP3 SWAP2 SWAP1 PUSH2 0x2DC JUMP JUMPDEST POP POP POP DUP1 PUSH1 0x7 DUP4 PUSH1 0x40 MLOAD PUSH2 0x1DC SWAP2 SWAP1 PUSH2 0x54F JUMP JUMPDEST SWAP1 DUP2 MSTORE PUSH1 0x20 ADD PUSH1 0x40 MLOAD DUP1 SWAP2 SUB SWAP1 KECCAK256 DUP2 SWAP1 SSTORE POP POP POP JUMP JUMPDEST PUSH1 0x6 DUP2 DUP2 SLOAD DUP2 LT PUSH2 0x202 JUMPI PUSH1 0x0 DUP1 REVERT JUMPDEST SWAP1 PUSH1 0x0 MSTORE PUSH1 0x20 PUSH1 0x0 KECCAK256 SWAP1 PUSH1 0x2 MUL ADD PUSH1 0x0 SWAP2 POP SWAP1 POP DUP1 PUSH1 0x0 ADD SLOAD SWAP1 DUP1 PUSH1 0x1 ADD DUP1 SLOAD PUSH2 0x22B SWAP1 PUSH2 0x6D0 JUMP JUMPDEST DUP1 PUSH1 0x1F ADD PUSH1 0x20 DUP1 SWAP2 DIV MUL PUSH1 0x20 ADD PUSH1 0x40 MLOAD SWAP1 DUP2 ADD PUSH1 0x40 MSTORE DUP1 SWAP3 SWAP2 SWAP1 DUP2 DUP2 MSTORE PUSH1 0x20 ADD DUP3 DUP1 SLOAD PUSH2 0x257 SWAP1 PUSH2 0x6D0 JUMP JUMPDEST DUP1 ISZERO PUSH2 0x2A4 JUMPI DUP1 PUSH1 0x1F LT PUSH2 0x279 JUMPI PUSH2 0x100 DUP1 DUP4 SLOAD DIV MUL DUP4 MSTORE SWAP2 PUSH1 0x20 ADD SWAP2 PUSH2 0x2A4 JUMP JUMPDEST DUP3 ADD SWAP2 SWAP1 PUSH1 0x0 MSTORE PUSH1 0x20 PUSH1 0x0 KECCAK256 SWAP1 JUMPDEST DUP2 SLOAD DUP2 MSTORE SWAP1 PUSH1 0x1 ADD SWAP1 PUSH1 0x20 ADD DUP1 DUP4 GT PUSH2 0x287 JUMPI DUP3 SWAP1 SUB PUSH1 0x1F AND DUP3 ADD SWAP2 JUMPDEST POP POP POP POP POP SWAP1 POP DUP3 JUMP JUMPDEST PUSH1 0x7 DUP2 DUP1 MLOAD PUSH1 0x20 DUP2 ADD DUP3 ADD DUP1 MLOAD DUP5 DUP3 MSTORE PUSH1 0x20 DUP4 ADD PUSH1 0x20 DUP6 ADD KECCAK256 DUP2 DUP4 MSTORE DUP1 SWAP6 POP POP POP POP POP POP PUSH1 0x0 SWAP2 POP SWAP1 POP SLOAD DUP2 JUMP JUMPDEST DUP3 DUP1 SLOAD PUSH2 0x2E8 SWAP1 PUSH2 0x6D0 JUMP JUMPDEST SWAP1 PUSH1 0x0 MSTORE PUSH1 0x20 PUSH1 0x0 KECCAK256 SWAP1 PUSH1 0x1F ADD PUSH1 0x20 SWAP1 DIV DUP2 ADD SWAP3 DUP3 PUSH2 0x30A JUMPI PUSH1 0x0 DUP6 SSTORE PUSH2 0x351 JUMP JUMPDEST DUP3 PUSH1 0x1F LT PUSH2 0x323 JUMPI DUP1 MLOAD PUSH1 0xFF NOT AND DUP4 DUP1 ADD OR DUP6 SSTORE PUSH2 0x351 JUMP JUMPDEST DUP3 DUP1 ADD PUSH1 0x1 ADD DUP6 SSTORE DUP3 ISZERO PUSH2 0x351 JUMPI SWAP2 DUP3 ADD JUMPDEST DUP3 DUP2 GT ISZERO PUSH2 0x350 JUMPI DUP3 MLOAD DUP3 SSTORE SWAP2 PUSH1 0x20 ADD SWAP2 SWAP1 PUSH1 0x1 ADD SWAP1 PUSH2 0x335 JUMP JUMPDEST JUMPDEST POP SWAP1 POP PUSH2 0x35E SWAP2 SWAP1 PUSH2 0x362 JUMP JUMPDEST POP SWAP1 JUMP JUMPDEST JUMPDEST DUP1 DUP3 GT ISZERO PUSH2 0x37B JUMPI PUSH1 0x0 DUP2 PUSH1 0x0 SWAP1 SSTORE POP PUSH1 0x1 ADD PUSH2 0x363 JUMP JUMPDEST POP SWAP1 JUMP JUMPDEST PUSH1 0x0 PUSH2 0x392 PUSH2 0x38D DUP5 PUSH2 0x5D6 JUMP JUMPDEST PUSH2 0x5B1 JUMP JUMPDEST SWAP1 POP DUP3 DUP2 MSTORE PUSH1 0x20 DUP2 ADD DUP5 DUP5 DUP5 ADD GT ISZERO PUSH2 0x3AE JUMPI PUSH2 0x3AD PUSH2 0x7C5 JUMP JUMPDEST JUMPDEST PUSH2 0x3B9 DUP5 DUP3 DUP6 PUSH2 0x68E JUMP JUMPDEST POP SWAP4 SWAP3 POP POP POP JUMP JUMPDEST PUSH1 0x0 DUP3 PUSH1 0x1F DUP4 ADD SLT PUSH2 0x3D6 JUMPI PUSH2 0x3D5 PUSH2 0x7C0 JUMP JUMPDEST JUMPDEST DUP2 CALLDATALOAD PUSH2 0x3E6 DUP5 DUP3 PUSH1 0x20 DUP7 ADD PUSH2 0x37F JUMP JUMPDEST SWAP2 POP POP SWAP3 SWAP2 POP POP JUMP JUMPDEST PUSH1 0x0 DUP2 CALLDATALOAD SWAP1 POP PUSH2 0x3FE DUP2 PUSH2 0x7E5 JUMP JUMPDEST SWAP3 SWAP2 POP POP JUMP JUMPDEST PUSH1 0x0 PUSH1 0x20 DUP3 DUP5 SUB SLT ISZERO PUSH2 0x41A JUMPI PUSH2 0x419 PUSH2 0x7CF JUMP JUMPDEST JUMPDEST PUSH1 0x0 DUP3 ADD CALLDATALOAD PUSH8 0xFFFFFFFFFFFFFFFF DUP2 GT ISZERO PUSH2 0x438 JUMPI PUSH2 0x437 PUSH2 0x7CA JUMP JUMPDEST JUMPDEST PUSH2 0x444 DUP5 DUP3 DUP6 ADD PUSH2 0x3C1 JUMP JUMPDEST SWAP2 POP POP SWAP3 SWAP2 POP POP JUMP JUMPDEST PUSH1 0x0 DUP1 PUSH1 0x40 DUP4 DUP6 SUB SLT ISZERO PUSH2 0x464 JUMPI PUSH2 0x463 PUSH2 0x7CF JUMP JUMPDEST JUMPDEST PUSH1 0x0 DUP4 ADD CALLDATALOAD PUSH8 0xFFFFFFFFFFFFFFFF DUP2 GT ISZERO PUSH2 0x482 JUMPI PUSH2 0x481 PUSH2 0x7CA JUMP JUMPDEST JUMPDEST PUSH2 0x48E DUP6 DUP3 DUP7 ADD PUSH2 0x3C1 JUMP JUMPDEST SWAP3 POP POP PUSH1 0x20 PUSH2 0x49F DUP6 DUP3 DUP7 ADD PUSH2 0x3EF JUMP JUMPDEST SWAP2 POP POP SWAP3 POP SWAP3 SWAP1 POP JUMP JUMPDEST PUSH1 0x0 PUSH1 0x20 DUP3 DUP5 SUB SLT ISZERO PUSH2 0x4BF JUMPI PUSH2 0x4BE PUSH2 0x7CF JUMP JUMPDEST JUMPDEST PUSH1 0x0 PUSH2 0x4CD DUP5 DUP3 DUP6 ADD PUSH2 0x3EF JUMP JUMPDEST SWAP2 POP POP SWAP3 SWAP2 POP POP JUMP JUMPDEST PUSH1 0x0 PUSH2 0x4E1 DUP3 PUSH2 0x607 JUMP JUMPDEST PUSH2 0x4EB DUP2 DUP6 PUSH2 0x612 JUMP JUMPDEST SWAP4 POP PUSH2 0x4FB DUP2 DUP6 PUSH1 0x20 DUP7 ADD PUSH2 0x69D JUMP JUMPDEST PUSH2 0x504 DUP2 PUSH2 0x7D4 JUMP JUMPDEST DUP5 ADD SWAP2 POP POP SWAP3 SWAP2 POP POP JUMP JUMPDEST PUSH1 0x0 PUSH2 0x51A DUP3 PUSH2 0x607 JUMP JUMPDEST PUSH2 0x524 DUP2 DUP6 PUSH2 0x623 JUMP JUMPDEST SWAP4 POP PUSH2 0x534 DUP2 DUP6 PUSH1 0x20 DUP7 ADD PUSH2 0x69D JUMP JUMPDEST DUP1 DUP5 ADD SWAP2 POP POP SWAP3 SWAP2 POP POP JUMP JUMPDEST PUSH2 0x549 DUP2 PUSH2 0x684 JUMP JUMPDEST DUP3 MSTORE POP POP JUMP JUMPDEST PUSH1 0x0 PUSH2 0x55B DUP3 DUP5 PUSH2 0x50F JUMP JUMPDEST SWAP2 POP DUP2 SWAP1 POP SWAP3 SWAP2 POP POP JUMP JUMPDEST PUSH1 0x0 PUSH1 0x20 DUP3 ADD SWAP1 POP PUSH2 0x57B PUSH1 0x0 DUP4 ADD DUP5 PUSH2 0x540 JUMP JUMPDEST SWAP3 SWAP2 POP POP JUMP JUMPDEST PUSH1 0x0 PUSH1 0x40 DUP3 ADD SWAP1 POP PUSH2 0x596 PUSH1 0x0 DUP4 ADD DUP6 PUSH2 0x540 JUMP JUMPDEST DUP2 DUP2 SUB PUSH1 0x20 DUP4 ADD MSTORE PUSH2 0x5A8 DUP2 DUP5 PUSH2 0x4D6 JUMP JUMPDEST SWAP1 POP SWAP4 SWAP3 POP POP POP JUMP JUMPDEST PUSH1 0x0 PUSH2 0x5BB PUSH2 0x5CC JUMP JUMPDEST SWAP1 POP PUSH2 0x5C7 DUP3 DUP3 PUSH2 0x702 JUMP JUMPDEST SWAP2 SWAP1 POP JUMP JUMPDEST PUSH1 0x0 PUSH1 0x40 MLOAD SWAP1 POP SWAP1 JUMP JUMPDEST PUSH1 0x0 PUSH8 0xFFFFFFFFFFFFFFFF DUP3 GT ISZERO PUSH2 0x5F1 JUMPI PUSH2 0x5F0 PUSH2 0x791 JUMP JUMPDEST JUMPDEST PUSH2 0x5FA DUP3 PUSH2 0x7D4 JUMP JUMPDEST SWAP1 POP PUSH1 0x20 DUP2 ADD SWAP1 POP SWAP2 SWAP1 POP JUMP JUMPDEST PUSH1 0x0 DUP2 MLOAD SWAP1 POP SWAP2 SWAP1 POP JUMP JUMPDEST PUSH1 0x0 DUP3 DUP3 MSTORE PUSH1 0x20 DUP3 ADD SWAP1 POP SWAP3 SWAP2 POP POP JUMP JUMPDEST PUSH1 0x0 DUP2 SWAP1 POP SWAP3 SWAP2 POP POP JUMP JUMPDEST PUSH1 0x0 PUSH2 0x639 DUP3 PUSH2 0x684 JUMP JUMPDEST SWAP2 POP PUSH2 0x644 DUP4 PUSH2 0x684 JUMP JUMPDEST SWAP3 POP DUP3 PUSH32 0xFFFFFFFFFFFFFFFFFFFFFFFFFFFFFFFFFFFFFFFFFFFFFFFFFFFFFFFFFFFFFFFF SUB DUP3 GT ISZERO PUSH2 0x679 JUMPI PUSH2 0x678 PUSH2 0x733 JUMP JUMPDEST JUMPDEST DUP3 DUP3 ADD SWAP1 POP SWAP3 SWAP2 POP POP JUMP JUMPDEST PUSH1 0x0 DUP2 SWAP1 POP SWAP2 SWAP1 POP JUMP JUMPDEST DUP3 DUP2 DUP4 CALLDATACOPY PUSH1 0x0 DUP4 DUP4 ADD MSTORE POP POP POP JUMP JUMPDEST PUSH1 0x0 JUMPDEST DUP4 DUP2 LT ISZERO PUSH2 0x6BB JUMPI DUP1 DUP3 ADD MLOAD DUP2 DUP5 ADD MSTORE PUSH1 0x20 DUP2 ADD SWAP1 POP PUSH2 0x6A0 JUMP JUMPDEST DUP4 DUP2 GT ISZERO PUSH2 0x6CA JUMPI PUSH1 0x0 DUP5 DUP5 ADD MSTORE JUMPDEST POP POP POP POP JUMP JUMPDEST PUSH1 0x0 PUSH1 0x2 DUP3 DIV SWAP1 POP PUSH1 0x1 DUP3 AND DUP1 PUSH2 0x6E8 JUMPI PUSH1 0x7F DUP3 AND SWAP2 POP JUMPDEST PUSH1 0x20 DUP3 LT DUP2 EQ ISZERO PUSH2 0x6FC JUMPI PUSH2 0x6FB PUSH2 0x762 JUMP JUMPDEST JUMPDEST POP SWAP2 SWAP1 POP JUMP JUMPDEST PUSH2 0x70B DUP3 PUSH2 0x7D4 JUMP JUMPDEST DUP2 ADD DUP2 DUP2 LT PUSH8 0xFFFFFFFFFFFFFFFF DUP3 GT OR ISZERO PUSH2 0x72A JUMPI PUSH2 0x729 PUSH2 0x791 JUMP JUMPDEST JUMPDEST DUP1 PUSH1 0x40 MSTORE POP POP POP JUMP JUMPDEST PUSH32 0x4E487B7100000000000000000000000000000000000000000000000000000000 PUSH1 0x0 MSTORE PUSH1 0x11 PUSH1 0x4 MSTORE PUSH1 0x24 PUSH1 0x0 REVERT JUMPDEST PUSH32 0x4E487B7100000000000000000000000000000000000000000000000000000000 PUSH1 0x0 MSTORE PUSH1 0x22 PUSH1 0x4 MSTORE PUSH1 0x24 PUSH1 0x0 REVERT JUMPDEST PUSH32 0x4E487B7100000000000000000000000000000000000000000000000000000000 PUSH1 0x0 MSTORE PUSH1 0x41 PUSH1 0x4 MSTORE PUSH1 0x24 PUSH1 0x0 REVERT JUMPDEST PUSH1 0x0 DUP1 REVERT JUMPDEST PUSH1 0x0 DUP1 REVERT JUMPDEST PUSH1 0x0 DUP1 REVERT JUMPDEST PUSH1 0x0 DUP1 REVERT JUMPDEST PUSH1 0x0 PUSH1 0x1F NOT PUSH1 0x1F DUP4 ADD AND SWAP1 POP SWAP2 SWAP1 POP JUMP JUMPDEST PUSH2 0x7EE DUP2 PUSH2 0x684 JUMP JUMPDEST DUP2 EQ PUSH2 0x7F9 JUMPI PUSH1 0x0 DUP1 REVERT JUMPDEST POP JUMP INVALID LOG2 PUSH5 0x6970667358 0x22 SLT KECCAK256 CODESIZE PUSH10 0x252F6023877E430B1705 SIGNEXTEND PUSH11 0xCCC1C9218D0EF925638F6D 0x24 SWAP10 CALLDATACOPY PUSH17 0xE1C6BC64736F6C63430008070033000000 "
		},
		"gasEstimates": {
			"creation": {
				"codeDepositCost": "419600",
				"executionCost": "infinite",
				"totalCost": "infinite"
			},
			"external": {
				"addPerson(string,uint256)": "infinite",
				"favoriteNumber()": "2429",
				"nameToFavouriteNumber(string)": "infinite",
				"peopleArray(uint256)": "infinite",
				"retrieve()": "2415",
				"store(uint256)": "infinite"
			}
		},
		"methodIdentifiers": {
			"addPerson(string,uint256)": "6f760f41",
			"favoriteNumber()": "471f7cdf",
			"nameToFavouriteNumber(string)": "b2ac62ef",
			"peopleArray(uint256)": "a4e1ca5a",
			"retrieve()": "2e64cec1",
			"store(uint256)": "6057361d"
		}
	},
	"abi": [
		{
			"inputs": [
				{
					"internalType": "string",
					"name": "_name",
					"type": "string"
				},
				{
					"internalType": "uint256",
					"name": "_favouriteNumber",
					"type": "uint256"
				}
			],
			"name": "addPerson",
			"outputs": [],
			"stateMutability": "nonpayable",
			"type": "function"
		},
		{
			"inputs": [],
			"name": "favoriteNumber",
			"outputs": [
				{
					"internalType": "uint256",
					"name": "",
					"type": "uint256"
				}
			],
			"stateMutability": "view",
			"type": "function"
		},
		{
			"inputs": [
				{
					"internalType": "string",
					"name": "",
					"type": "string"
				}
			],
			"name": "nameToFavouriteNumber",
			"outputs": [
				{
					"internalType": "uint256",
					"name": "",
					"type": "uint256"
				}
			],
			"stateMutability": "view",
			"type": "function"
		},
		{
			"inputs": [
				{
					"internalType": "uint256",
					"name": "",
					"type": "uint256"
				}
			],
			"name": "peopleArray",
			"outputs": [
				{
					"internalType": "uint256",
					"name": "favoriteNumber",
					"type": "uint256"
				},
				{
					"internalType": "string",
					"name": "name",
					"type": "string"
				}
			],
			"stateMutability": "view",
			"type": "function"
		},
		{
			"inputs": [],
			"name": "retrieve",
			"outputs": [
				{
					"internalType": "uint256",
					"name": "",
					"type": "uint256"
				}
			],
			"stateMutability": "view",
			"type": "function"
		},
		{
			"inputs": [
				{
					"internalType": "uint256",
					"name": "_favouriteNumber",
					"type": "uint256"
				}
			],
			"name": "store",
			"outputs": [],
			"stateMutability": "nonpayable",
			"type": "function"
		}
	]
}